:020000040000FA
:060000000A128A110C280F
:10000800FE00030EF6000A08F7000A128A112A2CCD
:100018000A128A110F28F001F101F201F301F4012B
:10002800F50183120313A001A101A201A301A401F8
:10003800A501A601A701A801A901AA01AB01830195
:100048000A128A112728831203138801FF308316A6
:100058000313860088010713871787111815813045
:1000680099001812831203139817831603138C161A
:100078000B178B17981683120313181687117B28F2
:10008800073083120313AE005830AD005930AC006E
:10009800AC0B4C28AD0B4C28AE0B4C288312031329
:1000A800061C572858287B2887153130F80000305F
:1000B800F9000A128A11E1240A128A118312031321
:1000C8000814033083120313AE008A30AD00553094
:1000D800AC00AC0B6D28AD0B6D28AE0B6D288312F0
:1000E800031387110130F4000030F5007B2806184F
:1000F8007E287F28B8287408750403198428852861
:100108004428B828073083120313AE005830AD00D6
:100118005930AC00AC0B8E28AD0B8E28AE0B8E2858
:1001280083120313061C99289A28B82887150810E3
:100138003030F8000030F9000A128A11E1240A125E
:100148008A11033083120313AE008A30AD00553094
:10015800AC00AC0BAD28AD0BAD28AE0BAD288312AF
:1001680003138711F401F5010618BB28BC28F728EA
:10017800740375040319C128C2288628F728073094
:1001880083120313AE005830AD005930AC00AC0BED
:10019800CB28AD0BCB28AE0BCB2883120313861CC0
:1001A800D628D728F728871588143430F800003067
:1001B800F9000A128A11E1240A128A110330831203
:1001C8000313AE008A30AD005530AC00AC0BEA2802
:1001D800AD0BEA28AE0BEA2883120313871101300E
:1001E800F2000030F3008618FA28FB283429720838
:1001F8007304031900290129C328342907308312FD
:100208000313AE005830AD005930AC00AC0B0A29CE
:10021800AD0B0A29AE0B0A2983120313861C152974
:1002280016293429871588103330F8000030F90072
:100238000A128A11E1240A128A1103308312031365
:10024800AE008A30AD005530AC00AC0B2929AD0B9F
:100258002929AE0B2929831203138711F201F3010F
:1002680086183729382973297203730403193D291D
:100278003E2902297329073083120313AE00583030
:10028800AD005930AC00AC0B4729AD0B4729AE0B7C
:10029800472983120313061D5229532973298715E9
:1002A80008153630F8000030F9000A128A11E124E6
:1002B8000A128A11033083120313AE008A30AD008C
:1002C8005530AC00AC0B6629AD0B6629AE0B662920
:1002D8008312031387110130F0000030F100061972
:1002E80076297729B0297008710403197C297D299A
:1002F8003F29B029073083120313AE005830AD00F0
:100308005930AC00AC0B8629AD0B8629AE0B86297B
:1003180083120313061D91299229B0298715081104
:100328003530F8000030F9000A128A11E1240A1267
:100338008A11033083120313AE008A30AD005530A2
:10034800AC00AC0BA529AD0BA529AE0BA5298312D2
:1003580003138711F001F1010619B329B429EF2914
:10036800700371040319B929BA297E29EF290730C6
:1003780083120313AE005830AD005930AC00AC0BFB
:10038800C329AD0BC329AE0BC32983120313861DE2
:10039800CE29CF29EF29871588153830F800003085
:1003A800F9000A128A11E1240A128A110330831211
:1003B8000313AE008A30AD005530AC00AC0BE22917
:1003C800AD0BE229AE0BE22983120313871101302A
:1003D800AA000030AB008619F229F3292C2A2A0832
:1003E8002B040319F829F929BB292C2A0730831271
:1003F8000313AE005830AD005930AC00AC0B022AE4
:10040800AD0B022AAE0B022A83120313861D0D2A96
:100418000E2A2C2A871588113730F8000030F90089
:100428000A128A11E1240A128A1103308312031373
:10043800AE008A30AD005530AC00AC0B212AAD0BB4
:10044800212AAE0B212A831203138711AA01AB01BB
:1004580086192F2A302A6B2A2A032B040319352AD6
:10046800362AFA296B2A073083120313AE00583054
:10047800AD005930AC00AC0B3F2AAD0B3F2AAE0B98
:100488003F2A83120313061E4A2A4B2A6B2A871512
:1004980008166130F8000030F9000A128A11E124C8
:1004A8000A128A11033083120313AE008A30AD009A
:1004B8005530AC00AC0B5E2AAD0B5E2AAE0B5E2A43
:1004C8008312031387110130A8000030A900061A0F
:1004D8006E2A6F2AA82A280829040319742A752A5B
:1004E800372AA82A073083120313AE005830AD000C
:1004F8005930AC00AC0B7E2AAD0B7E2AAE0B7E2A9F
:1005080083120313061E892A8A2AA82A8715081225
:100518003930F8000030F9000A128A11E1240A1271
:100528008A11033083120313AE008A30AD005530B0
:10053800AC00AC0B9D2AAD0B9D2AAE0B9D2A8312F5
:1005480003138711A801A901061AAB2AAC2AE72AC6
:10055800280329040319B12AB22A762AE72A073080
:1005680083120313AE005830AD005930AC00AC0B09
:10057800BB2AAD0BBB2AAE0BBB2A83120313861E04
:10058800C62AC72AE72A871588166330F80000307C
:10059800F9000A128A11E1240A128A11033083121F
:1005A8000313AE008A30AD005530AC00AC0BDA2A2C
:1005B800AD0BDA2AAE0BDA2A831203138711013046
:1005C800A6000030A700861AEA2AEB2A242B260860
:1005D80027040319F02AF12AB32A242B073083129F
:1005E8000313AE005830AD005930AC00AC0BFA2AFA
:1005F800AD0BFA2AAE0BFA2A83120313861E052BBB
:10060800062B242B871588126230F8000030F90079
:100618000A128A11E1240A128A1103308312031381
:10062800AE008A30AD005530AC00AC0B192BAD0BC9
:10063800192BAE0B192B831203138711A601A701DF
:10064800861A272B282B632B2603270403192D2B07
:100658002E2BF22A632B073083120313AE00583077
:10066800AD005930AC00AC0B372BAD0B372BAE0BB4
:10067800372B83120313061F422B432B632B87153B
:1006880008176530F8000030F9000A128A11E124D1
:100698000A128A11033083120313AE008A30AD00A8
:1006A8005530AC00AC0B562BAD0B562BAE0B562B66
:1006B8008312031387110130A4000030A500061B24
:1006C800662B672BA02B2408250403196C2B6D2B94
:1006D8002F2BA02B073083120313AE005830AD0028
:1006E8005930AC00AC0B762BAD0B762BAE0B762BC2
:1006F80083120313061F812B822BA02B8715081347
:100708006430F8000030F9000A128A11E1240A1254
:100718008A11033083120313AE008A30AD005530BE
:10072800AC00AC0B952BAD0B952BAE0B952B831218
:1007380003138711A401A501061BA32BA42BDF2BF0
:10074800240325040319A92BAA2B6E2BDF2B0730B2
:1007580083120313AE005830AD005930AC00AC0B17
:10076800B32BAD0BB32BAE0BB32B83120313861F26
:10077800BE2BBF2BDF2B871588176730F80000309A
:10078800F9000A128A11E1240A128A11033083122D
:100798000313AE008A30AD005530AC00AC0BD22B41
:1007A800AD0BD22BAE0BD22B831203138711013062
:1007B800A2000030A300861BE22BE32B1C2C22088E
:1007C80023040319E82BE92BAB2B1C2C07308312CD
:1007D8000313AE005830AD005930AC00AC0BF22B0F
:1007E800AD0BF22BAE0BF22B83120313861FFD2BDE
:1007F800FE2B1C2C871588136630F8000030F90092
:100808000A128A11E1240A128A110330831203138F
:10081800AE008A30AD005530AC00AC0B112CAD0BDE
:10082800112CAE0B112C831203138711A201A30103
:10083800861B1F2C202C7B28220323040319252C1C
:10084800262CEA2B7B280A128A110C288312031300
:1008580087118C1E302C312CDA2C31301A06031DEE
:10086800362C372C3D2C08140130F4000030F500EC
:10087800462C30301A06031D422C432C462C0810F7
:10088800F401F50134301A06031D4B2C4C2C522C64
:1008980088140130F2000030F3005B2C33301A0664
:1008A800031D572C582C5B2C8810F201F3013630AD
:1008B8001A06031D602C612C672C08150130F00006
:1008C8000030F100702C35301A06031D6C2C6D2C8D
:1008D800702C0811F001F10138301A06031D752C2F
:1008E800762C7C2C88150130AA000030AB00852CB2
:1008F80037301A06031D812C822C852C8811AA01F9
:10090800AB0161301A06031D8A2C8B2C912C08161A
:100918000130A8000030A9009A2C39301A06031DAE
:10092800962C972C9A2C0812A801A90163301A0654
:10093800031D9F2CA02CA62C88160130A600003081
:10094800A700AF2C62301A06031DAB2CAC2CAF2CC1
:100958008812A601A70165301A06031DB42CB52C10
:10096800BB2C08170130A4000030A500C42C64304B
:100978001A06031DC02CC12CC42C0813A401A50100
:1009880067301A06031DC92CCA2CD02C88170130D1
:10099800A2000030A300D92C66301A06031DD52CFE
:1009A800D62CD92C8813A201A3018C1277088A00AF
:1009B800760E8300FE0E7E0E090083160313981C24
:1009C800E62CE72CE12C7808831203139900080021
:02400E003A3F37
:00000001FF
